:03000000020C05EA
:0C0C0500787FE4F6D8FD75813A020C4CB3
:100A270055415254204D4F4445004B455950414480
:100A3700204D4F444500535749544348204D4F4498
:100A470045002D2D2D2D2D204D4F4445005541524C
:100A57005420496E697469616C697A65640D0A008E
:100A67004B45593A31204D6F746F72204F4E004BF2
:100A770045593A32204D6F746F72204F4646004BEE
:100A870045593A332042757A7A6572204F4E004BAA
:100A970045593A342042757A7A6572204F464600A6
:100AA7004B45593A3F20556E6B6E6F776E00554137
:100AB70052543A4D204D6F746F72204F4E0055417E
:100AC70052543A6D204D6F746F72204F4646005551
:100AD7004152543A422042757A7A6572204F4E004D
:100AE700554152543A622042757A7A6572204F46D0
:100AF7004600554152543A3F20556E6B6E6F776EE4
:100B070000535749544348205052455353454400D6
:100B17005357495443482052454C45415345440097
:050D0200011800C10012
:080C91007B007A007923AF22F9
:100C99008F348B358A368937120D32E53414600F5B
:100CA900146014240270187BFF7A0A792780167B56
:100CB900FF7A0A7931800E7BFF7A0A793D80067BBB
:100CC900FF7A0A7949120CDF7FC0120DA5AB35AA4C
:060CD90036A937020CDF12
:03002300020D8F3C
:0B0D8F00309807859918D200C29832F6
:10080000120D837BFF7A0A7954120D1F120D3212DA
:100810000DBFD2B2C2B3D2B4D2B6120B278F21E52C
:1008200021606375220124CE601A1460271460349D
:1008300024037040C2B478237C007D007BFF7A0AD9
:100840007967803CD2B478237C007D007BFF7A0AF4
:100850007976802CC2B678237C007D007BFF7A0AF3
:100860007986801CD2B678237C007D007BFF7A0AD3
:100870007996800C78237C007D007BFF7A0A79A72B
:10088000120A0A120C9130006CC200851821E4F59E
:1008900022E52124BE602C24E0603824F560142475
:1008A000207040C2B478237C007D007BFF7A0A79F7
:1008B000B5803CD2B478237C007D007BFF7A0A7936
:1008C000C5802CC2B678237C007D007BFF7A0A7934
:1008D000D6801CD2B678237C007D007BFF7A0A7913
:1008E000E7800C78237C007D007BFF7A0A79F9127F
:1008F0000A0A120C9130B20302081A752202C2B31E
:100900007BFF7A0B7908AF22120C9930B2FD7F146D
:100910007E00120D9AD2B37BFF7A0B7917AF2212A9
:050920000C9902081A09
:0B0D9A00EF1FAC0670011E4C70F6222B
:0E0D410053B07F7FE87E03120D9A43B08022EC
:030DC3008FA022DC
:090DA500120DC353B0DF020D4131
:090DAE00120DC343B020020D41F7
:100CDF008B388A39893AAB38AA39A93A120925FFD4
:100CEF006010120DAE7401253AF53AE43539F53935
:030CFF0080E4226C
:0F0D32007F38120DA57F0E120DA57F06020DA5AD
:100D07001008373839253435362A3132332D233018
:020D17003D2B72
:0D0D4F005390FE439002439004439008220D
:0D0D5C004390015390FD4390044390082202
:0D0D69004390014390025390FB43900822F9
:0D0D76004390014390024390045390F722F4
:040DBF007590FF220A
:100B2700E4FF120D4FE59020E408E59030E4FBAFB9
:100B37000822E59020E508E59030E5FBAF0922E5BE
:100B47009020E608E59030E6FBAF0A22E59020E723
:100B570008E59030E7FBAF0B22120D5CE59020E42F
:100B670008E59030E4FBAF0C22E59020E508E5901E
:100B770030E5FBAF0D22E59020E608E59030E6FB77
:100B8700AF0E22E59020E708E59030E7FBAF0F2294
:100B9700120D69E59020E408E59030E4FBAF1022E0
:100BA700E59020E508E59030E5FBAF1122E59020C0
:100BB700E608E59030E6FBAF1222E59020E708E56E
:100BC7009030E7FBAF1322120D76E59020E408E59D
:100BD7009030E4FBAF1422E59020E508E59030E57E
:100BE700FBAF1522E59020E608E59030E6FBAF164F
:0D0BF70022E59020E707E59030E7FBAF17FF
:010C040022CD
:050D1900011900C101F9
:0C0D8300758920758DFD759850D28E2268
:080DB7008F993099FDC29922C9
:100D1F00120925FF600C120DB7740129F9E43AFA94
:030D2F0080EE2231
:100C1100020800E493A3F8E493A34003F68001F2F1
:100C210008DFF48029E493A3F85407240CC8C333E4
:100C3100C4540F4420C8834004F456800146F6DFB3
:100C4100E4800B0102040810204080900D02E47E34
:100C5100019360BCA3FF543F30E509541FFEE493A8
:100C6100A360010ECF54C025E060A840B8E493A36F
:100C7100FAE493A3F8E493A3C8C582C8CAC583CA9A
:100C8100F0A3C8C582C8CAC583CADFE9DEE780BE52
:010D1E0000D4
:10092500BB010689828A83E0225002E722BBFE02D0
:09093500E32289828A83E4932203
:10093E00E709F60870FA8046E709F20870FA803E79
:10094E0088828C83E709F0A370FA807EE309F608AB
:10095E0070FA8076E309F20870FA806E88828C83D2
:10096E00E309F0A370FA806289828A83E0A3F60815
:10097E0070FA805689828A83E0A3F20870FA804A60
:10098E0080D280FA80C680D4806580F2803180105B
:10099E0080A680EA809A80A880DA80E280CA8031C0
:1009AE0089828A83ECFAE493A3C8C582C8CCC58336
:1009BE00CCF0A3C8C582C8CCC583CC70E9800D89A4
:1009CE00828A83E493A3F60870F9ECFAA9F0EDFBA2
:1009DE002289828A83ECFAE0A3C8C582C8CCC5837B
:1009EE00CCF0A3C8C582C8CCC583CC70EA80DD89A3
:1009FE00828A83E493A3F20870F980CE88F0ED2406
:100A0E0002B4040050C4F582EB2402B4040050BAC0
:090A1E00232345822390098E7305
:00000001FF
